{
  "contractName": "Sector5slums",
  "abi": [
    {
      "inputs": [],
      "stateMutability": "nonpayable",
      "type": "constructor"
    },
    {
      "anonymous": false,
      "inputs": [
        {
          "indexed": true,
          "internalType": "address",
          "name": "_owner",
          "type": "address"
        },
        {
          "indexed": true,
          "internalType": "address",
          "name": "_approved",
          "type": "address"
        },
        {
          "indexed": true,
          "internalType": "uint256",
          "name": "_tokenId",
          "type": "uint256"
        }
      ],
      "name": "Approval",
      "type": "event"
    },
    {
      "anonymous": false,
      "inputs": [
        {
          "indexed": true,
          "internalType": "address",
          "name": "_owner",
          "type": "address"
        },
        {
          "indexed": true,
          "internalType": "address",
          "name": "_operator",
          "type": "address"
        },
        {
          "indexed": false,
          "internalType": "bool",
          "name": "_approved",
          "type": "bool"
        }
      ],
      "name": "ApprovalForAll",
      "type": "event"
    },
    {
      "anonymous": false,
      "inputs": [
        {
          "indexed": true,
          "internalType": "address",
          "name": "previousOwner",
          "type": "address"
        },
        {
          "indexed": true,
          "internalType": "address",
          "name": "newOwner",
          "type": "address"
        }
      ],
      "name": "OwnershipTransferred",
      "type": "event"
    },
    {
      "anonymous": false,
      "inputs": [
        {
          "indexed": true,
          "internalType": "address",
          "name": "_from",
          "type": "address"
        },
        {
          "indexed": true,
          "internalType": "address",
          "name": "_to",
          "type": "address"
        },
        {
          "indexed": true,
          "internalType": "uint256",
          "name": "_tokenId",
          "type": "uint256"
        }
      ],
      "name": "Transfer",
      "type": "event"
    },
    {
      "inputs": [],
      "name": "_LinkToken",
      "outputs": [
        {
          "internalType": "address",
          "name": "",
          "type": "address"
        }
      ],
      "stateMutability": "view",
      "type": "function",
      "constant": true
    },
    {
      "inputs": [],
      "name": "_VRFCoordinator",
      "outputs": [
        {
          "internalType": "address",
          "name": "",
          "type": "address"
        }
      ],
      "stateMutability": "view",
      "type": "function",
      "constant": true
    },
    {
      "inputs": [
        {
          "internalType": "uint256",
          "name": "",
          "type": "uint256"
        }
      ],
      "name": "aeriths",
      "outputs": [
        {
          "internalType": "uint256",
          "name": "Strength",
          "type": "uint256"
        },
        {
          "internalType": "uint256",
          "name": "Magic",
          "type": "uint256"
        },
        {
          "internalType": "uint256",
          "name": "Vitality",
          "type": "uint256"
        },
        {
          "internalType": "uint256",
          "name": "Spirit",
          "type": "uint256"
        },
        {
          "internalType": "uint256",
          "name": "Luck",
          "type": "uint256"
        },
        {
          "internalType": "uint256",
          "name": "Speed",
          "type": "uint256"
        },
        {
          "internalType": "uint256",
          "name": "Level",
          "type": "uint256"
        },
        {
          "internalType": "string",
          "name": "aerith",
          "type": "string"
        }
      ],
      "stateMutability": "view",
      "type": "function",
      "constant": true
    },
    {
      "inputs": [],
      "name": "owner",
      "outputs": [
        {
          "internalType": "address",
          "name": "",
          "type": "address"
        }
      ],
      "stateMutability": "view",
      "type": "function",
      "constant": true
    },
    {
      "inputs": [],
      "name": "randomResult",
      "outputs": [
        {
          "internalType": "uint256",
          "name": "",
          "type": "uint256"
        }
      ],
      "stateMutability": "view",
      "type": "function",
      "constant": true
    },
    {
      "inputs": [
        {
          "internalType": "bytes32",
          "name": "requestId",
          "type": "bytes32"
        },
        {
          "internalType": "uint256",
          "name": "randomness",
          "type": "uint256"
        }
      ],
      "name": "rawFulfillRandomness",
      "outputs": [],
      "stateMutability": "nonpayable",
      "type": "function"
    },
    {
      "inputs": [],
      "name": "renounceOwnership",
      "outputs": [],
      "stateMutability": "nonpayable",
      "type": "function"
    },
    {
      "inputs": [
        {
          "internalType": "address",
          "name": "newOwner",
          "type": "address"
        }
      ],
      "name": "transferOwnership",
      "outputs": [],
      "stateMutability": "nonpayable",
      "type": "function"
    },
    {
      "inputs": [
        {
          "internalType": "bytes4",
          "name": "interfaceId",
          "type": "bytes4"
        }
      ],
      "name": "supportsInterface",
      "outputs": [
        {
          "internalType": "bool",
          "name": "",
          "type": "bool"
        }
      ],
      "stateMutability": "view",
      "type": "function",
      "constant": true
    },
    {
      "inputs": [
        {
          "internalType": "address",
          "name": "_owner",
          "type": "address"
        }
      ],
      "name": "balanceOf",
      "outputs": [
        {
          "internalType": "uint256",
          "name": "",
          "type": "uint256"
        }
      ],
      "stateMutability": "view",
      "type": "function",
      "constant": true
    },
    {
      "inputs": [
        {
          "internalType": "uint256",
          "name": "_tokenId",
          "type": "uint256"
        }
      ],
      "name": "ownerOf",
      "outputs": [
        {
          "internalType": "address",
          "name": "",
          "type": "address"
        }
      ],
      "stateMutability": "view",
      "type": "function",
      "constant": true
    },
    {
      "inputs": [
        {
          "internalType": "address",
          "name": "_from",
          "type": "address"
        },
        {
          "internalType": "address",
          "name": "_to",
          "type": "address"
        },
        {
          "internalType": "uint256",
          "name": "_tokenId",
          "type": "uint256"
        }
      ],
      "name": "safeTransferFrom",
      "outputs": [],
      "stateMutability": "nonpayable",
      "type": "function"
    },
    {
      "inputs": [
        {
          "internalType": "address",
          "name": "_from",
          "type": "address"
        },
        {
          "internalType": "address",
          "name": "_to",
          "type": "address"
        },
        {
          "internalType": "uint256",
          "name": "_tokenId",
          "type": "uint256"
        },
        {
          "internalType": "bytes",
          "name": "_data",
          "type": "bytes"
        }
      ],
      "name": "safeTransferFrom",
      "outputs": [],
      "stateMutability": "nonpayable",
      "type": "function"
    },
    {
      "inputs": [
        {
          "internalType": "address",
          "name": "_from",
          "type": "address"
        },
        {
          "internalType": "address",
          "name": "_to",
          "type": "address"
        },
        {
          "internalType": "uint256",
          "name": "_tokenId",
          "type": "uint256"
        }
      ],
      "name": "transferFrom",
      "outputs": [],
      "stateMutability": "nonpayable",
      "type": "function"
    },
    {
      "inputs": [
        {
          "internalType": "address",
          "name": "_to",
          "type": "address"
        },
        {
          "internalType": "uint256",
          "name": "_tokenId",
          "type": "uint256"
        }
      ],
      "name": "approve",
      "outputs": [],
      "stateMutability": "nonpayable",
      "type": "function"
    },
    {
      "inputs": [
        {
          "internalType": "address",
          "name": "_operator",
          "type": "address"
        },
        {
          "internalType": "bool",
          "name": "_approved",
          "type": "bool"
        }
      ],
      "name": "setApprovedForAll",
      "outputs": [],
      "stateMutability": "nonpayable",
      "type": "function"
    },
    {
      "inputs": [
        {
          "internalType": "address",
          "name": "_owner",
          "type": "address"
        },
        {
          "internalType": "address",
          "name": "_operator",
          "type": "address"
        }
      ],
      "name": "isApprovedForAll",
      "outputs": [
        {
          "internalType": "bool",
          "name": "",
          "type": "bool"
        }
      ],
      "stateMutability": "view",
      "type": "function",
      "constant": true
    },
    {
      "inputs": [
        {
          "internalType": "address",
          "name": "",
          "type": "address"
        },
        {
          "internalType": "address",
          "name": "",
          "type": "address"
        },
        {
          "internalType": "uint256",
          "name": "",
          "type": "uint256"
        },
        {
          "internalType": "bytes",
          "name": "",
          "type": "bytes"
        }
      ],
      "name": "onERC721Received",
      "outputs": [
        {
          "internalType": "bytes4",
          "name": "",
          "type": "bytes4"
        }
      ],
      "stateMutability": "pure",
      "type": "function",
      "constant": true
    },
    {
      "inputs": [],
      "name": "name",
      "outputs": [
        {
          "internalType": "string",
          "name": "",
          "type": "string"
        }
      ],
      "stateMutability": "view",
      "type": "function",
      "constant": true
    },
    {
      "inputs": [],
      "name": "symbol",
      "outputs": [
        {
          "internalType": "string",
          "name": "",
          "type": "string"
        }
      ],
      "stateMutability": "view",
      "type": "function",
      "constant": true
    },
    {
      "inputs": [
        {
          "internalType": "uint256",
          "name": "_tokenId",
          "type": "uint256"
        }
      ],
      "name": "tokenURI",
      "outputs": [
        {
          "internalType": "string",
          "name": "",
          "type": "string"
        }
      ],
      "stateMutability": "view",
      "type": "function",
      "constant": true
    },
    {
      "inputs": [
        {
          "internalType": "uint256",
          "name": "_tokenId",
          "type": "uint256"
        },
        {
          "internalType": "string",
          "name": "_tokenURI",
          "type": "string"
        }
      ],
      "name": "setTokenURI",
      "outputs": [],
      "stateMutability": "nonpayable",
      "type": "function"
    },
    {
      "inputs": [
        {
          "internalType": "string",
          "name": "aerith",
          "type": "string"
        }
      ],
      "name": "requestNewRandomAerith",
      "outputs": [
        {
          "internalType": "bytes32",
          "name": "",
          "type": "bytes32"
        }
      ],
      "stateMutability": "nonpayable",
      "type": "function"
    },
    {
      "inputs": [
        {
          "internalType": "uint256",
          "name": "_tokenId",
          "type": "uint256"
        }
      ],
      "name": "getLevel",
      "outputs": [
        {
          "internalType": "uint256",
          "name": "",
          "type": "uint256"
        }
      ],
      "stateMutability": "view",
      "type": "function",
      "constant": true
    },
    {
      "inputs": [],
      "name": "getNumberOfAeriths",
      "outputs": [
        {
          "internalType": "uint256",
          "name": "",
          "type": "uint256"
        }
      ],
      "stateMutability": "view",
      "type": "function",
      "constant": true
    },
    {
      "inputs": [
        {
          "internalType": "uint256",
          "name": "_tokenId",
          "type": "uint256"
        }
      ],
      "name": "getAerithsOverView",
      "outputs": [
        {
          "internalType": "string",
          "name": "",
          "type": "string"
        },
        {
          "internalType": "uint256",
          "name": "",
          "type": "uint256"
        },
        {
          "internalType": "uint256",
          "name": "",
          "type": "uint256"
        },
        {
          "internalType": "uint256",
          "name": "",
          "type": "uint256"
        }
      ],
      "stateMutability": "view",
      "type": "function",
      "constant": true
    },
    {
      "inputs": [
        {
          "internalType": "uint256",
          "name": "_tokenId",
          "type": "uint256"
        }
      ],
      "name": "getAerithsStats",
      "outputs": [
        {
          "internalType": "uint256",
          "name": "",
          "type": "uint256"
        },
        {
          "internalType": "uint256",
          "name": "",
          "type": "uint256"
        },
        {
          "internalType": "uint256",
          "name": "",
          "type": "uint256"
        },
        {
          "internalType": "uint256",
          "name": "",
          "type": "uint256"
        },
        {
          "internalType": "uint256",
          "name": "",
          "type": "uint256"
        },
        {
          "internalType": "uint256",
          "name": "",
          "type": "uint256"
        },
        {
          "internalType": "uint256",
          "name": "",
          "type": "uint256"
        }
      ],
      "stateMutability": "view",
      "type": "function",
      "constant": true
    }
  ],
  "bytecode": "0x60c06040526040518060400160405280600681526020017f4145524954480000000000000000000000000000000000000000000000000000815250600290805190602001906200005192919062000335565b506040518060400160405280600581526020017f4145524953000000000000000000000000000000000000000000000000000000815250600390805190602001906200009f92919062000335565b507f2ed0feb3e7fd2022120aa84fab1945545a9f2ffc9076fd6156fa96eaff4c131160001b60045567016345785d8a000060055573b3dccb4cf7a26f6cf6b120cf5a73875b7bbc655b600760006101000a81548173ffffffffffffffffffffffffffffffffffffffff021916908373ffffffffffffffffffffffffffffffffffffffff1602179055507301be23585060835e02b77ef475b0cc51aa1e0709600860006101000a81548173ffffffffffffffffffffffffffffffffffffffff021916908373ffffffffffffffffffffffffffffffffffffffff1602179055503480156200018a57600080fd5b50600760009054906101000a900473ffffffffffffffffffffffffffffffffffffffff16600860009054906101000a900473ffffffffffffffffffffffffffffffffffffffff168173ffffffffffffffffffffffffffffffffffffffff1660a08173ffffffffffffffffffffffffffffffffffffffff1660601b815250508073ffffffffffffffffffffffffffffffffffffffff1660808173ffffffffffffffffffffffffffffffffffffffff1660601b81525050505062000261620002556200026760201b60201c565b6200026f60201b60201c565b6200044a565b600033905090565b6000600160009054906101000a900473ffffffffffffffffffffffffffffffffffffffff16905081600160006101000a81548173ffffffffffffffffffffffffffffffffffffffff021916908373ffffffffffffffffffffffffffffffffffffffff1602179055508173ffffffffffffffffffffffffffffffffffffffff168173ffffffffffffffffffffffffffffffffffffffff167f8be0079c531659141344cd1fd0a4f28419497f9722a3daafe3b4186f6b6457e060405160405180910390a35050565b8280546200034390620003e5565b90600052602060002090601f016020900481019282620003675760008555620003b3565b82601f106200038257805160ff1916838001178555620003b3565b82800160010185558215620003b3579182015b82811115620003b257825182559160200191906001019062000395565b5b509050620003c29190620003c6565b5090565b5b80821115620003e1576000816000905550600101620003c7565b5090565b60006002820490506001821680620003fe57607f821691505b602082108114156200041557620004146200041b565b5b50919050565b7f4e487b7100000000000000000000000000000000000000000000000000000000600052602260045260246000fd5b60805160601c60a05160601c613356620004846000396000818161156d0152611b6b015260008181610fff0152611b2f01526133566000f3fe608060405234801561001057600080fd5b50600436106101a95760003560e01c806370a08231116100f9578063b697a0c411610097578063c87b56dd11610071578063c87b56dd146104f0578063e985e9c514610520578063f2fde38b14610550578063f38842901461056c576101a9565b8063b697a0c41461049a578063b88d4fde146104b6578063c1b054c9146104d2576101a9565b806386481d40116100d357806386481d40146104125780638da5cb5b1461044257806394985ddd1461046057806395d89b411461047c576101a9565b806370a08231146103a2578063715018a6146103d25780638592578d146103dc576101a9565b80631a484d99116101665780633a682197116101405780633a6821971461030857806342619f661461033857806342842e0e146103565780636352211e14610372576101a9565b80631a484d991461029757806323b872dd146102ce578063261f6321146102ea576101a9565b806301ffc9a7146101ae57806306fdde03146101de578063095ea7b3146101fc5780631187db7114610218578063150b7a021461024b578063162094c41461027b575b600080fd5b6101c860048036038101906101c3919061262d565b61058a565b6040516101d59190612bce565b60405180910390f35b6101e66106d4565b6040516101f39190612c8d565b60405180910390f35b6102166004803603810190610211919061258c565b610766565b005b610232600480360381019061022d9190612697565b610929565b6040516102429493929190612caf565b60405180910390f35b610265600480360381019061026091906124d0565b610c65565b6040516102729190612c72565b60405180910390f35b610295600480360381019061029091906126e9565b610c93565b005b6102b160048036038101906102ac9190612697565b610ca1565b6040516102c5989796959493929190612ec5565b60405180910390f35b6102e860048036038101906102e39190612481565b610d81565b005b6102f2610fd2565b6040516102ff9190612b75565b60405180910390f35b610322600480360381019061031d9190612656565b610ff8565b60405161032f9190612be9565b60405180910390f35b610340611183565b60405161034d9190612e3b565b60405180910390f35b610370600480360381019061036b9190612481565b611189565b005b61038c60048036038101906103879190612697565b611199565b6040516103999190612b75565b60405180910390f35b6103bc60048036038101906103b7919061241c565b6111db565b6040516103c99190612e3b565b60405180910390f35b6103da611224565b005b6103f660048036038101906103f19190612697565b6112ac565b6040516104099796959493929190612e56565b60405180910390f35b61042c60048036038101906104279190612697565b6114e4565b6040516104399190612e3b565b60405180910390f35b61044a611541565b6040516104579190612b75565b60405180910390f35b61047a600480360381019061047591906125f1565b61156b565b005b610484611607565b6040516104919190612c8d565b60405180910390f35b6104b460048036038101906104af9190612550565b611699565b005b6104d060048036038101906104cb91906124d0565b61181a565b005b6104da61182e565b6040516104e79190612b75565b60405180910390f35b61050a60048036038101906105059190612697565b611854565b6040516105179190612c8d565b60405180910390f35b61053a60048036038101906105359190612445565b61195e565b6040516105479190612bce565b60405180910390f35b61056a6004803603810190610565919061241c565b6119f2565b005b610574611aea565b6040516105819190612e3b565b60405180910390f35b60007f9c0f5e90000000000000000000000000000000000000000000000000000000007bffffffffffffffffffffffffffffffffffffffffffffffffffffffff1916827bffffffffffffffffffffffffffffffffffffffffffffffffffffffff1916148061065557507f150b7a02000000000000000000000000000000000000000000000000000000007bffffffffffffffffffffffffffffffffffffffffffffffffffffffff1916827bffffffffffffffffffffffffffffffffffffffffffffffffffffffff1916145b806106bd57507f5b5e139f000000000000000000000000000000000000000000000000000000007bffffffffffffffffffffffffffffffffffffffffffffffffffffffff1916827bffffffffffffffffffffffffffffffffffffffffffffffffffffffff1916145b806106cd57506106cc8261058a565b5b9050919050565b6060600280546106e390613169565b80601f016020809104026020016040519081016040528092919081815260200182805461070f90613169565b801561075c5780601f106107315761010080835404028352916020019161075c565b820191906000526020600020905b81548152906001019060200180831161073f57829003601f168201915b5050505050905090565b600061077182611199565b90508073ffffffffffffffffffffffffffffffffffffffff168373ffffffffffffffffffffffffffffffffffffffff1614156107e2576040517f08c379a00000000000000000000000000000000000000000000000000000000081526004016107d990612d7b565b60405180910390fd5b8073ffffffffffffffffffffffffffffffffffffffff16610801611af7565b73ffffffffffffffffffffffffffffffffffffffff161480610830575061082f8161082a611af7565b61195e565b5b61086f576040517f08c379a000000000000000000000000000000000000000000000000000000000815260040161086690612d9b565b60405180910390fd5b82600f600084815260200190815260200160002060006101000a81548173ffffffffffffffffffffffffffffffffffffffff021916908373ffffffffffffffffffffffffffffffffffffffff160217905550818373ffffffffffffffffffffffffffffffffffffffff166108e284611199565b73ffffffffffffffffffffffffffffffffffffffff167f8c5be1e5ebec7d5bd14f71427d1e84f3dd0314c0f7b2291e5b200ac8c7c3b92560405160405180910390a4505050565b606060008060006009858154811061096a577f4e487b7100000000000000000000000000000000000000000000000000000000600052603260045260246000fd5b9060005260206000209060080201600701600986815481106109b5577f4e487b7100000000000000000000000000000000000000000000000000000000600052603260045260246000fd5b90600052602060002090600802016005015460098781548110610a01577f4e487b7100000000000000000000000000000000000000000000000000000000600052603260045260246000fd5b90600052602060002090600802016004015460098881548110610a4d577f4e487b7100000000000000000000000000000000000000000000000000000000600052603260045260246000fd5b90600052602060002090600802016003015460098981548110610a99577f4e487b7100000000000000000000000000000000000000000000000000000000600052603260045260246000fd5b90600052602060002090600802016002015460098a81548110610ae5577f4e487b7100000000000000000000000000000000000000000000000000000000600052603260045260246000fd5b90600052602060002090600802016001015460098b81548110610b31577f4e487b7100000000000000000000000000000000000000000000000000000000600052603260045260246000fd5b906000526020600020906008020160000154610b4d9190612fee565b610b579190612fee565b610b619190612fee565b610b6b9190612fee565b610b759190612fee565b610b7e876114e4565b60098881548110610bb8577f4e487b7100000000000000000000000000000000000000000000000000000000600052603260045260246000fd5b906000526020600020906008020160060154838054610bd690613169565b80601f0160208091040260200160405190810160405280929190818152602001828054610c0290613169565b8015610c4f5780601f10610c2457610100808354040283529160200191610c4f565b820191906000526020600020905b815481529060010190602001808311610c3257829003601f168201915b5050505050935093509350935093509193509193565b60007f7b24bc42e7e578b34d58728c66a7c91f45b6611f5ad52727db73d698a7e23fad905095945050505050565b610c9d8282611aff565b5050565b60098181548110610cb157600080fd5b9060005260206000209060080201600091509050806000015490806001015490806002015490806003015490806004015490806005015490806006015490806007018054610cfe90613169565b80601f0160208091040260200160405190810160405280929190818152602001828054610d2a90613169565b8015610d775780601f10610d4c57610100808354040283529160200191610d77565b820191906000526020600020905b815481529060010190602001808311610d5a57829003601f168201915b5050505050905088565b8273ffffffffffffffffffffffffffffffffffffffff16610da182611199565b73ffffffffffffffffffffffffffffffffffffffff1614610df7576040517f08c379a0000000000000000000000000000000000000000000000000000000008152600401610dee90612e1b565b60405180910390fd5b600073ffffffffffffffffffffffffffffffffffffffff168273ffffffffffffffffffffffffffffffffffffffff161415610e67576040517f08c379a0000000000000000000000000000000000000000000000000000000008152600401610e5e90612d1b565b60405180910390fd5b610e72600082610766565b6001601060008573ffffffffffffffffffffffffffffffffffffffff1673ffffffffffffffffffffffffffffffffffffffff1681526020019081526020016000206000828254610ec29190613075565b925050819055506001601060008473ffffffffffffffffffffffffffffffffffffffff1673ffffffffffffffffffffffffffffffffffffffff1681526020019081526020016000206000828254610f199190612fee565b9250508190555081600e600083815260200190815260200160002060006101000a81548173ffffffffffffffffffffffffffffffffffffffff021916908373ffffffffffffffffffffffffffffffffffffffff160217905550808273ffffffffffffffffffffffffffffffffffffffff168473ffffffffffffffffffffffffffffffffffffffff167fddf252ad1be2c89b69c2b068fc378daa952ba7f163c4a11628f55a4df523b3ef60405160405180910390a4505050565b600760009054906101000a900473ffffffffffffffffffffffffffffffffffffffff1681565b60006005547f000000000000000000000000000000000000000000000000000000000000000073ffffffffffffffffffffffffffffffffffffffff166370a08231306040518263ffffffff1660e01b81526004016110569190612b75565b60206040518083038186803b15801561106e57600080fd5b505afa158015611082573d6000803e3d6000fd5b505050506040513d601f19601f820116820180604052508101906110a691906126c0565b10156110e7576040517f08c379a00000000000000000000000000000000000000000000000000000000081526004016110de90612d3b565b60405180910390fd5b60006110f7600454600554611b2b565b905082600a60008381526020019081526020016000209080519060200190611120929190612234565b50611129611af7565b600b600083815260200190815260200160002060006101000a81548173ffffffffffffffffffffffffffffffffffffffff021916908373ffffffffffffffffffffffffffffffffffffffff16021790555080915050919050565b60065481565b611194838383610d81565b505050565b600080600e600084815260200190815260200160002060009054906101000a900473ffffffffffffffffffffffffffffffffffffffff16905080915050919050565b6000601060008373ffffffffffffffffffffffffffffffffffffffff1673ffffffffffffffffffffffffffffffffffffffff168152602001908152602001600020549050919050565b61122c611af7565b73ffffffffffffffffffffffffffffffffffffffff1661124a611541565b73ffffffffffffffffffffffffffffffffffffffff16146112a0576040517f08c379a000000000000000000000000000000000000000000000000000000000815260040161129790612dfb565b60405180910390fd5b6112aa6000611c8a565b565b6000806000806000806000600988815481106112f1577f4e487b7100000000000000000000000000000000000000000000000000000000600052603260045260246000fd5b9060005260206000209060080201600001546009898154811061133d577f4e487b7100000000000000000000000000000000000000000000000000000000600052603260045260246000fd5b90600052602060002090600802016001015460098a81548110611389577f4e487b7100000000000000000000000000000000000000000000000000000000600052603260045260246000fd5b90600052602060002090600802016002015460098b815481106113d5577f4e487b7100000000000000000000000000000000000000000000000000000000600052603260045260246000fd5b90600052602060002090600802016003015460098c81548110611421577f4e487b7100000000000000000000000000000000000000000000000000000000600052603260045260246000fd5b90600052602060002090600802016004015460098d8154811061146d577f4e487b7100000000000000000000000000000000000000000000000000000000600052603260045260246000fd5b90600052602060002090600802016005015460098e815481106114b9577f4e487b7100000000000000000000000000000000000000000000000000000000600052603260045260246000fd5b9060005260206000209060080201600601549650965096509650965096509650919395979092949650565b600061153a60098381548110611523577f4e487b7100000000000000000000000000000000000000000000000000000000600052603260045260246000fd5b906000526020600020906008020160060154611d50565b9050919050565b6000600160009054906101000a900473ffffffffffffffffffffffffffffffffffffffff16905090565b7f000000000000000000000000000000000000000000000000000000000000000073ffffffffffffffffffffffffffffffffffffffff163373ffffffffffffffffffffffffffffffffffffffff16146115f9576040517f08c379a00000000000000000000000000000000000000000000000000000000081526004016115f090612dbb565b60405180910390fd5b6116038282611dad565b5050565b60606003805461161690613169565b80601f016020809104026020016040519081016040528092919081815260200182805461164290613169565b801561168f5780601f106116645761010080835404028352916020019161168f565b820191906000526020600020905b81548152906001019060200180831161167257829003601f168201915b5050505050905090565b6116a1611af7565b73ffffffffffffffffffffffffffffffffffffffff168273ffffffffffffffffffffffffffffffffffffffff16141561170f576040517f08c379a000000000000000000000000000000000000000000000000000000000815260040161170690612ddb565b60405180910390fd5b806011600061171c611af7565b73ffffffffffffffffffffffffffffffffffffffff1673ffffffffffffffffffffffffffffffffffffffff16815260200190815260200160002060008473ffffffffffffffffffffffffffffffffffffffff1673ffffffffffffffffffffffffffffffffffffffff16815260200190815260200160002060006101000a81548160ff0219169083151502179055508173ffffffffffffffffffffffffffffffffffffffff166117c9611af7565b73ffffffffffffffffffffffffffffffffffffffff167f17307eab39ab6107e8899845ad3d59bd9653f200f220920489ca2b5937696c318360405161180e9190612bce565b60405180910390a35050565b611827858585858561181a565b5050505050565b600860009054906101000a900473ffffffffffffffffffffffffffffffffffffffff1681565b60606000600d6000848152602001908152602001600020805461187690613169565b80601f01602080910402602001604051908101604052809291908181526020018280546118a290613169565b80156118ef5780601f106118c4576101008083540402835291602001916118ef565b820191906000526020600020905b8154815290600101906020018083116118d257829003601f168201915b505050505090506000611900612035565b9050600081511415611916578192505050611959565b60008251111561194b578082604051602001611933929190612b51565b60405160208183030381529060405292505050611959565b61195484611854565b925050505b919050565b6000601160008473ffffffffffffffffffffffffffffffffffffffff1673ffffffffffffffffffffffffffffffffffffffff16815260200190815260200160002060008373ffffffffffffffffffffffffffffffffffffffff1673ffffffffffffffffffffffffffffffffffffffff16815260200190815260200160002060009054906101000a900460ff16905092915050565b6119fa611af7565b73ffffffffffffffffffffffffffffffffffffffff16611a18611541565b73ffffffffffffffffffffffffffffffffffffffff1614611a6e576040517f08c379a0000000000000000000000000000000000000000000000000000000008152600401611a6590612dfb565b60405180910390fd5b600073ffffffffffffffffffffffffffffffffffffffff168173ffffffffffffffffffffffffffffffffffffffff161415611ade576040517f08c379a0000000000000000000000000000000000000000000000000000000008152600401611ad590612cfb565b60405180910390fd5b611ae781611c8a565b50565b6000600980549050905090565b600033905090565b80600d60008481526020019081526020016000209080519060200190611b26929190612234565b505050565b60007f000000000000000000000000000000000000000000000000000000000000000073ffffffffffffffffffffffffffffffffffffffff16634000aea07f000000000000000000000000000000000000000000000000000000000000000084866000604051602001611b9f929190612c04565b6040516020818303038152906040526040518463ffffffff1660e01b8152600401611bcc93929190612b90565b602060405180830381600087803b158015611be657600080fd5b505af1158015611bfa573d6000803e3d6000fd5b505050506040513d601f19601f82011682018060405250810190611c1e91906125c8565b506000611c40846000306000808981526020019081526020016000205461204c565b9050600160008086815260200190815260200160002054611c619190612fee565b60008086815260200190815260200160002081905550611c818482612088565b91505092915050565b6000600160009054906101000a900473ffffffffffffffffffffffffffffffffffffffff16905081600160006101000a81548173ffffffffffffffffffffffffffffffffffffffff021916908373ffffffffffffffffffffffffffffffffffffffff1602179055508173ffffffffffffffffffffffffffffffffffffffff168173ffffffffffffffffffffffffffffffffffffffff167f8be0079c531659141344cd1fd0a4f28419497f9722a3daafe3b4186f6b6457e060405160405180910390a35050565b6000806002600184611d629190612fee565b611d6c9190613044565b90508291505b81811015611da7578091506002818285611d8c9190613044565b611d969190612fee565b611da09190613044565b9050611d72565b50919050565b6000600980549050905060006103e783611dc791906131af565b905060006103e8620186a085611ddd91906131af565b611de79190613044565b90506000620186a06298968086611dfe91906131af565b611e089190613044565b9050600062989680633b9aca0087611e2091906131af565b611e2a9190613044565b90506000633b9aca0064174876e80088611e4491906131af565b611e4e9190613044565b9050600064174876e8006509184e72a00089611e6a91906131af565b611e749190613044565b90506000603289611e8591906131af565b90506009604051806101000160405280898152602001888152602001878152602001868152602001858152602001848152602001838152602001600a60008e81526020019081526020016000208054611edd90613169565b80601f0160208091040260200160405190810160405280929190818152602001828054611f0990613169565b8015611f565780601f10611f2b57610100808354040283529160200191611f56565b820191906000526020600020905b815481529060010190602001808311611f3957829003601f168201915b50505050508152509080600181540180825580915050600190039060005260206000209060080201600090919091909150600082015181600001556020820151816001015560408201518160020155606082015181600301556080820151816004015560a0820151816005015560c0820151816006015560e0820151816007019080519060200190611fe9929190612234565b505050612029600b60008c815260200190815260200160002060009054906101000a900473ffffffffffffffffffffffffffffffffffffffff16896120bb565b50505050505050505050565b606060405180602001604052806000815250905090565b6000848484846040516020016120659493929190612c2d565b6040516020818303038152906040528051906020012060001c9050949350505050565b6000828260405160200161209d929190612b25565b60405160208183030381529060405280519060200120905092915050565b600073ffffffffffffffffffffffffffffffffffffffff168273ffffffffffffffffffffffffffffffffffffffff16141561212b576040517f08c379a000000000000000000000000000000000000000000000000000000000815260040161212290612d5b565b60405180910390fd5b6001601060008473ffffffffffffffffffffffffffffffffffffffff1673ffffffffffffffffffffffffffffffffffffffff168152602001908152602001600020600082825461217b9190612fee565b9250508190555081600e600083815260200190815260200160002060006101000a81548173ffffffffffffffffffffffffffffffffffffffff021916908373ffffffffffffffffffffffffffffffffffffffff160217905550808273ffffffffffffffffffffffffffffffffffffffff16600073ffffffffffffffffffffffffffffffffffffffff167fddf252ad1be2c89b69c2b068fc378daa952ba7f163c4a11628f55a4df523b3ef60405160405180910390a45050565b82805461224090613169565b90600052602060002090601f01602090048101928261226257600085556122a9565b82601f1061227b57805160ff19168380011785556122a9565b828001600101855582156122a9579182015b828111156122a857825182559160200191906001019061228d565b5b5090506122b691906122ba565b5090565b5b808211156122d35760008160009055506001016122bb565b5090565b60006122ea6122e584612f7b565b612f4a565b90508281526020810184848401111561230257600080fd5b61230d848285613127565b509392505050565b600081359050612324816132ad565b92915050565b600081359050612339816132c4565b92915050565b60008151905061234e816132c4565b92915050565b600081359050612363816132db565b92915050565b600081359050612378816132f2565b92915050565b60008083601f84011261239057600080fd5b8235905067ffffffffffffffff8111156123a957600080fd5b6020830191508360018202830111156123c157600080fd5b9250929050565b600082601f8301126123d957600080fd5b81356123e98482602086016122d7565b91505092915050565b60008135905061240181613309565b92915050565b60008151905061241681613309565b92915050565b60006020828403121561242e57600080fd5b600061243c84828501612315565b91505092915050565b6000806040838503121561245857600080fd5b600061246685828601612315565b925050602061247785828601612315565b9150509250929050565b60008060006060848603121561249657600080fd5b60006124a486828701612315565b93505060206124b586828701612315565b92505060406124c6868287016123f2565b9150509250925092565b6000806000806000608086880312156124e857600080fd5b60006124f688828901612315565b955050602061250788828901612315565b9450506040612518888289016123f2565b935050606086013567ffffffffffffffff81111561253557600080fd5b6125418882890161237e565b92509250509295509295909350565b6000806040838503121561256357600080fd5b600061257185828601612315565b92505060206125828582860161232a565b9150509250929050565b6000806040838503121561259f57600080fd5b60006125ad85828601612315565b92505060206125be858286016123f2565b9150509250929050565b6000602082840312156125da57600080fd5b60006125e88482850161233f565b91505092915050565b6000806040838503121561260457600080fd5b600061261285828601612354565b9250506020612623858286016123f2565b9150509250929050565b60006020828403121561263f57600080fd5b600061264d84828501612369565b91505092915050565b60006020828403121561266857600080fd5b600082013567ffffffffffffffff81111561268257600080fd5b61268e848285016123c8565b91505092915050565b6000602082840312156126a957600080fd5b60006126b7848285016123f2565b91505092915050565b6000602082840312156126d257600080fd5b60006126e084828501612407565b91505092915050565b600080604083850312156126fc57600080fd5b600061270a858286016123f2565b925050602083013567ffffffffffffffff81111561272757600080fd5b612733858286016123c8565b9150509250929050565b612746816130a9565b82525050565b612755816130bb565b82525050565b612764816130c7565b82525050565b61277b612776826130c7565b61319b565b82525050565b61278a816130d1565b82525050565b600061279b82612fab565b6127a58185612fc1565b93506127b5818560208601613136565b6127be8161329c565b840191505092915050565b60006127d482612fb6565b6127de8185612fd2565b93506127ee818560208601613136565b6127f78161329c565b840191505092915050565b600061280d82612fb6565b6128178185612fe3565b9350612827818560208601613136565b80840191505092915050565b6000612840602083612fd2565b91507f4572726f723a206e6577206f776e6572206973207a65726f20616464726573736000830152602082019050919050565b6000612880602a83612fd2565b91507f4572726f723a205472616e666572696e6720746f206e6f6e652065786973746960008301527f6e672061646472657373000000000000000000000000000000000000000000006020830152604082019050919050565b60006128e6602b83612fd2565b91507f4e6f7420656e6f756768204c494e4b202d2066696c6c20636f6e74726163742060008301527f77697468206661756365740000000000000000000000000000000000000000006020830152604082019050919050565b600061294c601d83612fd2565b91507f4572726f723a206164647265737320646f6573206e6f742065786973740000006000830152602082019050919050565b600061298c601f83612fd2565b91507f4572726f723a20796f752061726520616c726561647920617070726f766564006000830152602082019050919050565b60006129cc601383612fd2565b91507f4572726f723a206e6f7420617070726f766564000000000000000000000000006000830152602082019050919050565b6000612a0c601f83612fd2565b91507f4f6e6c7920565246436f6f7264696e61746f722063616e2066756c66696c6c006000830152602082019050919050565b6000612a4c601983612fd2565b91507f4572726f723a2063616c6c657220697320617070726f766564000000000000006000830152602082019050919050565b6000612a8c601483612fd2565b91507f4572726f723a206e6f7420746865206f776e65720000000000000000000000006000830152602082019050919050565b6000612acc601e83612fd2565b91507f4572726f723a206f6e6c79206f776e65722063616e207472616e7366657200006000830152602082019050919050565b612b088161311d565b82525050565b612b1f612b1a8261311d565b6131a5565b82525050565b6000612b31828561276a565b602082019150612b418284612b0e565b6020820191508190509392505050565b6000612b5d8285612802565b9150612b698284612802565b91508190509392505050565b6000602082019050612b8a600083018461273d565b92915050565b6000606082019050612ba5600083018661273d565b612bb26020830185612aff565b8181036040830152612bc48184612790565b9050949350505050565b6000602082019050612be3600083018461274c565b92915050565b6000602082019050612bfe600083018461275b565b92915050565b6000604082019050612c19600083018561275b565b612c266020830184612aff565b9392505050565b6000608082019050612c42600083018761275b565b612c4f6020830186612aff565b612c5c604083018561273d565b612c696060830184612aff565b95945050505050565b6000602082019050612c876000830184612781565b92915050565b60006020820190508181036000830152612ca781846127c9565b905092915050565b60006080820190508181036000830152612cc981876127c9565b9050612cd86020830186612aff565b612ce56040830185612aff565b612cf26060830184612aff565b95945050505050565b60006020820190508181036000830152612d1481612833565b9050919050565b60006020820190508181036000830152612d3481612873565b9050919050565b60006020820190508181036000830152612d54816128d9565b9050919050565b60006020820190508181036000830152612d748161293f565b9050919050565b60006020820190508181036000830152612d948161297f565b9050919050565b60006020820190508181036000830152612db4816129bf565b9050919050565b60006020820190508181036000830152612dd4816129ff565b9050919050565b60006020820190508181036000830152612df481612a3f565b9050919050565b60006020820190508181036000830152612e1481612a7f565b9050919050565b60006020820190508181036000830152612e3481612abf565b9050919050565b6000602082019050612e506000830184612aff565b92915050565b600060e082019050612e6b600083018a612aff565b612e786020830189612aff565b612e856040830188612aff565b612e926060830187612aff565b612e9f6080830186612aff565b612eac60a0830185612aff565b612eb960c0830184612aff565b98975050505050505050565b600061010082019050612edb600083018b612aff565b612ee8602083018a612aff565b612ef56040830189612aff565b612f026060830188612aff565b612f0f6080830187612aff565b612f1c60a0830186612aff565b612f2960c0830185612aff565b81810360e0830152612f3b81846127c9565b90509998505050505050505050565b6000604051905081810181811067ffffffffffffffff82111715612f7157612f7061326d565b5b8060405250919050565b600067ffffffffffffffff821115612f9657612f9561326d565b5b601f19601f8301169050602081019050919050565b600081519050919050565b600081519050919050565b600082825260208201905092915050565b600082825260208201905092915050565b600081905092915050565b6000612ff98261311d565b91506130048361311d565b9250827fffffffffffffffffffffffffffffffffffffffffffffffffffffffffffffffff03821115613039576130386131e0565b5b828201905092915050565b600061304f8261311d565b915061305a8361311d565b92508261306a5761306961320f565b5b828204905092915050565b60006130808261311d565b915061308b8361311d565b92508282101561309e5761309d6131e0565b5b828203905092915050565b60006130b4826130fd565b9050919050565b60008115159050919050565b6000819050919050565b60007fffffffff0000000000000000000000000000000000000000000000000000000082169050919050565b600073ffffffffffffffffffffffffffffffffffffffff82169050919050565b6000819050919050565b82818337600083830152505050565b60005b83811015613154578082015181840152602081019050613139565b83811115613163576000848401525b50505050565b6000600282049050600182168061318157607f821691505b602082108114156131955761319461323e565b5b50919050565b6000819050919050565b6000819050919050565b60006131ba8261311d565b91506131c58361311d565b9250826131d5576131d461320f565b5b828206905092915050565b7f4e487b7100000000000000000000000000000000000000000000000000000000600052601160045260246000fd5b7f4e487b7100000000000000000000000000000000000000000000000000000000600052601260045260246000fd5b7f4e487b7100000000000000000000000000000000000000000000000000000000600052602260045260246000fd5b7f4e487b7100000000000000000000000000000000000000000000000000000000600052604160045260246000fd5b6000601f19601f8301169050919050565b6132b6816130a9565b81146132c157600080fd5b50565b6132cd816130bb565b81146132d857600080fd5b50565b6132e4816130c7565b81146132ef57600080fd5b50565b6132fb816130d1565b811461330657600080fd5b50565b6133128161311d565b811461331d57600080fd5b5056fea2646970667358221220ed256ce34f423b2165f1f46a0d5baf7ba7a7b6157fbb557f8a264ccd6012e45864736f6c63430008000033",
  "immutableReferences": {
    "73": [
      {
        "length": 32,
        "start": 4095
      },
      {
        "length": 32,
        "start": 6959
      }
    ],
    "75": [
      {
        "length": 32,
        "start": 5485
      },
      {
        "length": 32,
        "start": 7019
      }
    ]
  },
  "source": "//SPDX-License-Identifier: UNLICENSED\npragma solidity ^0.8.0;\nimport \"@chainlink/contracts/src/v0.8/VRFConsumerBase.sol\";\ninterface ERC165 {\n\tfunction supportsInterface(bytes4 interfaceID) external view returns(bool);\n}\ninterface ERC721 is ERC165 {\n\tevent Transfer(address indexed _from, address indexed _to, uint256 indexed _tokenId);\n\tevent Approval(address indexed _owner, address indexed _approved, uint256 indexed _tokenId);\n\tevent ApprovalForAll(address indexed _owner, address indexed _operator, bool _approved);\n\n\tfunction balanceOf(address _owner) external view returns(uint256);\n\tfunction ownerOf(uint256 _tokenId) external view returns(address);\n\tfunction safeTransferFrom(address _from, address _to, uint256 _tokenId, bytes calldata _data) external;\n\tfunction safeTransferFrom(address _from, address _to, uint256 _tokenId) external;\n\tfunction transferFrom(address _from, address _to, uint256 _tokenId) external;\n\tfunction approve(address _approved, uint256 _tokenId) external;\n\tfunction setApprovedForAll(address _operator, bool _approved) external;\n\tfunction isApprovedForAll(address _owner, address _operator) external view returns(bool);\n}\ninterface ERC721TokenReceiver {\n\tfunction onERC721Received(address _operator, address _from, uint256 _tokenId, bytes calldata _data) external returns(bytes4);\n}\ninterface ERC721Metadata is ERC721 {\n\tfunction name() external view returns(string memory);\n\tfunction symbol() external view returns (string memory);\n\tfunction tokenURI(uint256 _tokenId) external view returns(string memory);\n}\nabstract contract Context {\n\tfunction _msgSender() internal view virtual returns(address) {\n\t\treturn msg.sender;\n\t}\n\tfunction _msgData() internal view virtual returns(bytes calldata) {\n\t\treturn msg.data;\n\t}\n}\nabstract contract Ownable is Context {\n\taddress private _owner;\n\tevent OwnershipTransferred(address indexed previousOwner, address indexed newOwner);\n\tconstructor() {\n\t\t_setOwner(_msgSender());\n\t}\n\tfunction owner() public view virtual returns(address) {\n\t\treturn _owner;\n\t}\n\tmodifier onlyOwner() {\n\t\trequire(owner() == _msgSender(), 'Error: not the owner');\n\t\t_;\n\t}\n\tfunction renounceOwnership() public virtual onlyOwner {\n\t\t_setOwner(address(0));\n\t}\n\tfunction transferOwnership(address newOwner) public virtual onlyOwner {\n\t\trequire(newOwner != address(0), 'Error: new owner is zero address');\n\t\t_setOwner(newOwner);\n\t}\n\tfunction _setOwner(address newOwner) private {\n\t\taddress oldOwner = _owner;\n\t\t_owner = newOwner;\n\t\temit OwnershipTransferred(oldOwner, newOwner);\n\t}\n}\nlibrary SafeMath {\n    function tryAdd(uint256 a, uint256 b) internal pure returns (bool, uint256) {\n        unchecked {\n            uint256 c = a + b;\n            if (c < a) return (false, 0);\n            return (true, c);\n        }\n    }\n    function trySub(uint256 a, uint256 b) internal pure returns (bool, uint256) {\n        unchecked {\n            if (b > a) return (false, 0);\n            return (true, a - b);\n        }\n    }\n    function tryMul(uint256 a, uint256 b) internal pure returns (bool, uint256) {\n        unchecked {\n            if (a == 0) return (true, 0);\n            uint256 c = a * b;\n            if (c / a != b) return (false, 0);\n            return (true, c);\n        }\n    }\n    function tryDiv(uint256 a, uint256 b) internal pure returns (bool, uint256) {\n        unchecked {\n            if (b == 0) return (false, 0);\n            return (true, a / b);\n        }\n    }\n    function tryMod(uint256 a, uint256 b) internal pure returns (bool, uint256) {\n        unchecked {\n            if (b == 0) return (false, 0);\n            return (true, a % b);\n        }\n    }\n    function add(uint256 a, uint256 b) internal pure returns (uint256) {\n        return a + b;\n    }\n    function sub(uint256 a, uint256 b) internal pure returns (uint256) {\n        return a - b;\n    }\n    function mul(uint256 a, uint256 b) internal pure returns (uint256) {\n        return a * b;\n    }\n    function div(uint256 a, uint256 b) internal pure returns (uint256) {\n        return a / b;\n    }\n    function mod(uint256 a, uint256 b) internal pure returns (uint256) {\n        return a % b;\n    }\n    function sub(uint256 a, uint256 b, string memory errorMessage) internal pure returns (uint256) {\n        unchecked {\n            require(b <= a, errorMessage);\n            return a - b;\n        }\n    }\n    function div(uint256 a, uint256 b, string memory errorMessage) internal pure returns (uint256) {\n        unchecked {\n            require(b > 0, errorMessage);\n            return a / b;\n        }\n    }\n    function mod(uint256 a, uint256 b, string memory errorMessage) internal pure returns (uint256) {\n        unchecked {\n            require(b > 0, errorMessage);\n            return a % b;\n        }\n    }\n}\nlibrary Address {\n\tfunction isContract(address account) internal view returns(bool) {\n\t\tuint256 size;\n\t\tassembly {\n\t\t\tsize := extcodesize(account)\n\t\t}\n\t\treturn size > 0;\n\t}\n\tfunction sendValue(address payable recipient, uint256 amount) internal {\n\t\trequire(address(this).balance >= amount, 'Address: Insufficient balance');\n\t\t(bool success, ) = recipient.call{value:amount}('');\n\t\trequire(success, 'Address: Unable to send value');\n\t}\n\tfunction functionCall(address target, bytes memory data, string memory errorMessage) internal returns(bytes memory) {\n\t\treturn functionCallWithValue(target, data, 0, errorMessage);\n\t}\n\tfunction functionCallWithValue(address target, bytes memory data, uint256 value, string memory errorMessage) internal returns(bytes memory) {\n\t\trequire(address(this). balance >= value, 'Address: Insufficient balance for call');\n\t\trequire(isContract(target),'Address: Call to non-contract');\n\t\t(bool success, bytes memory returndata) = target.call{value:value}(data);\n\t\treturn verifyCallResult(success, returndata, errorMessage);\n\t} \n\tfunction functionStaticCall(address target, bytes memory data, string memory errorMessage) internal view returns(bytes memory) {\n\t\trequire(isContract(target), 'Address: Static to non-contract');\n\t\t(bool success, bytes memory returndata) = target.staticcall(data);\n\t\treturn verifyCallResult(success, returndata, errorMessage);\n\t}\n\tfunction functionDelegateCall(address target, bytes memory data, string memory errorMessage) internal returns(bytes memory) {\n\t\trequire(isContract(target), 'Address: Delegate call to non-contract');\n\t\t(bool success, bytes memory returndata) = target.delegatecall(data);\n\t\treturn verifyCallResult(success, returndata,errorMessage);\n\t}\n\tfunction verifyCallResult(bool success, bytes memory returndata, string memory errorMessage) internal pure returns(bytes memory) {\n\t\tif(success) {\n\t\t\treturn returndata;\n\t\t} else {\n\t\t\tif(returndata.length > 0) {\n\t\t\t\tassembly {\n\t\t\t\t\tlet returndata_size := mload(returndata)\n\t\t\t\t\trevert(add(32, returndata), returndata_size)\n\t\t\t\t}\n\t\t\t} else {\n\t\t\t\trevert(errorMessage);\n\t\t\t}\n\t\t}\n\t}\n}\nlibrary Strings {\n\tbytes16 private constant _HEX_SYMBOLS = '0123456789abcdef';\n\tfunction toString(uint256 value) internal pure returns(string memory) {\n\t\tif(value == 0) {\n\t\t\treturn '0';\n\t\t}\n\t\tuint256 temp = value;\n\t\tuint256 digits;\n\t\twhile(temp != 0) {\n\t\t\tdigits++;\n\t\t\ttemp /= 10;\n\t\t}\n\t\tbytes memory buffer = new bytes(digits);\n\t\twhile(value != 0) {\n\t\t\tdigits -= 1;\n\t\t\tbuffer[digits] = bytes1(uint8(48 + uint256(value % 10)));\n\t\t\tvalue /= 10;\n\t\t}\n\t\treturn string(buffer);\n\t}\n\tfunction toHexString(uint256 value, uint256 length) internal pure returns(string memory) {\n\t\tbytes memory buffer = new bytes(2 * length + 2);\n\t\tbuffer[0] = '0';\n\t\tbuffer[1] = 'x';\n\t\tfor(uint256 i = 2 * length + 1; i > 1; --i) {\n\t\t\tbuffer[1] = _HEX_SYMBOLS[value & 0xf];\n\t\t\tvalue >>= 4;\n\t\t}\n\t\trequire(value == 0, 'Strings: Hex length insufficient');\n\t\treturn string(buffer);\n\t}\n}\ncontract Sector5slums is VRFConsumerBase, ERC165, ERC721, ERC721TokenReceiver, ERC721Metadata, Context, Ownable {\n\tusing SafeMath for uint256;\n\tusing Address for address;\n\tusing Strings for string;\n\n\tstring private _name = 'AERITH';\n\tstring private _symbol = 'AERIS';\n\n\tbytes32 internal _keyHash = 0x2ed0feb3e7fd2022120aa84fab1945545a9f2ffc9076fd6156fa96eaff4c1311;\n    uint256 internal _fee = 0.1 * 10**18; // 0.1 LINK\n    uint256 public randomResult;\n    address public _VRFCoordinator = 0xb3dCcb4Cf7a26f6cf6B120Cf5A73875B7BBc655B;\n    address public _LinkToken = 0x01BE23585060835E02B77ef475b0Cc51aA1e0709;\n\n    struct Aerith {uint256 Strength; uint256 Magic;  uint256 Vitality; \n    uint256 Spirit; uint256 Luck; uint256 Speed; uint256 Level; string aerith;}\n\n    Aerith[] public aeriths;\n\n    mapping(bytes32 => string) requestToAerithName;\n    mapping(bytes32 => address) requestToSender;\n    mapping(bytes32 => uint256) requestTo_tokenId;\n\t\n\tmapping(uint256 => string) private _tokenURIs;\n\tmapping(uint256 => address) private _owners;\n\tmapping(uint256 => address) private _tokenApprovals;\n\tmapping(address => uint256) private _balances;\n\tmapping(address => mapping(address => bool)) private _operatorApprovals;\n\t\n\tconstructor() VRFConsumerBase(_VRFCoordinator, _LinkToken) {\n    }\n\tfunction supportsInterface(bytes4 interfaceId) public view virtual override(ERC165) returns (bool) {\n\t\treturn \n\t\tinterfaceId == type(ERC721).interfaceId ||\n\t\tinterfaceId == type(ERC721TokenReceiver).interfaceId ||\n\t\tinterfaceId == type(ERC721Metadata).interfaceId ||\n\t\tsupportsInterface(interfaceId);\n\t}\n\tfunction balanceOf(address _owner) public view virtual override returns(uint256) {\n\t\treturn _balances[_owner];\n\t}\n\tfunction ownerOf(uint256 _tokenId) public view virtual override returns(address) {\n\t\taddress _owner = _owners[_tokenId];\n\t\treturn _owner;\n\t}\n\tfunction safeTransferFrom(address _from, address _to, uint256 _tokenId) public virtual override {\n\t\ttransferFrom(_from, _to, _tokenId);\n\t}\n\tfunction safeTransferFrom(address _from, address _to, uint256 _tokenId, bytes calldata _data) public virtual override {\n\t\tsafeTransferFrom(_from, _to, _tokenId, _data);\n\t}\n\tfunction transferFrom(address _from, address _to, uint256 _tokenId) public virtual override {\n\t\trequire(ownerOf(_tokenId) == _from, 'Error: only owner can transfer');\n\t\trequire(_to != address(0), 'Error: Tranfering to none existing address');\n\t\tapprove(address(0), _tokenId);\n\t\t_balances[_from] -= 1;\n\t\t_balances[_to] += 1;\n\t\t_owners[_tokenId] = _to;\n\t\temit Transfer(_from, _to, _tokenId);\n\t}\n\tfunction approve(address _to, uint256 _tokenId) public virtual override {\n\t\taddress _owner = ownerOf(_tokenId);\n\t\trequire(_to != _owner, 'Error: you are already approved');\n\t\trequire(_msgSender() == _owner || isApprovedForAll(_owner, _msgSender()), 'Error: not approved');\n\t\t_tokenApprovals[_tokenId] = _to;\n\t\temit Approval(ownerOf(_tokenId), _to, _tokenId);\n\t}\n\tfunction setApprovedForAll(address _operator, bool _approved) public virtual override {\n\t\trequire(_operator != _msgSender(), 'Error: caller is approved');\n\t\t_operatorApprovals[_msgSender()][_operator] = _approved;\n\t\temit ApprovalForAll(_msgSender(), _operator, _approved);\n\t}\n\tfunction isApprovedForAll(address _owner, address _operator) public view virtual override returns(bool) {\n\t\treturn _operatorApprovals[_owner][_operator];\n\t}\n\tfunction onERC721Received(address, address, uint256, bytes calldata) external pure override returns(bytes4) {\n\t\treturn bytes4(keccak256(\"onERC721Received(address,address,uint256,bytes calldata)\"));\n\t}\n\tfunction name() public view virtual override returns(string memory) {\n\t\treturn _name;\n\t}\n\tfunction symbol() public view virtual override returns(string memory) {\n\t\treturn _symbol;\n\t}\n\tfunction tokenURI(uint256 _tokenId) public view virtual override returns (string memory) {\n\t\tstring memory _tokenURI = _tokenURIs[_tokenId];\n\t\tstring memory base = baseURI();\n\t\tif (bytes(base).length == 0) {\n\t\treturn _tokenURI;\n\t}\n\t\tif (bytes(_tokenURI).length > 0) {\n\t\treturn string(abi.encodePacked(base, _tokenURI));\n\t}\n\t\treturn tokenURI(_tokenId);\n\t}\n\tfunction setTokenURI(uint256 _tokenId, string memory _tokenURI) public {\n\t\tbaseTokenURI(_tokenId, _tokenURI);\n\t}\n\tfunction baseTokenURI(uint256 _tokenId, string memory _tokenURI) internal virtual {\n\t\t_tokenURIs[_tokenId] = _tokenURI;\n\t}\n\tfunction baseURI() internal view virtual returns (string memory) {\n    \treturn \"\";\n    }    \n\tfunction mint(address _to, uint256 _tokenId) internal virtual {\n\t  require(_to != address(0), 'Error: address does not exist');\n\t  _balances[_to] += 1;\n\t  _owners[_tokenId] = _to;\n\t  emit Transfer(address(0), _to, _tokenId);\n\t}\n\tfunction burn(uint256 _tokenId) internal {\n\taddress _owner = ownerOf(_tokenId);\n\t  approve(address(0), _tokenId);\n\t  _balances[_owner] -= 1;\n\t  delete _owners[_tokenId];\n\t  emit Transfer(_owner, address(0), _tokenId);\n\t}\n\n\n\tfunction requestNewRandomAerith(string memory aerith) public returns (bytes32) {\n        require(LINK.balanceOf(address(this)) >= _fee, \"Not enough LINK - fill contract with faucet\");\n        bytes32 requestId = requestRandomness(_keyHash, _fee);\n        requestToAerithName[requestId] = aerith;\n        requestToSender[requestId] = _msgSender();\n        return requestId;\n    }\n    function fulfillRandomness(bytes32 requestId, uint256 randomNumber) internal override {\n        uint256 newId = aeriths.length; uint256 Strength = (randomNumber % 999); uint256 Magic = ((randomNumber % 100000) / 1000 ); uint256 Vitality = ((randomNumber % 10000000) / 100000 ); \n        uint256 Spirit = ((randomNumber % 1000000000) / 10000000); uint256 Luck = ((randomNumber % 100000000000) / 1000000000); uint256 Speed = ((randomNumber % 10000000000000) / 100000000000);\n        uint256 Level = (randomNumber % 50); aeriths.push(Aerith(Strength, Magic, Vitality, Spirit, Luck, Speed, Level, requestToAerithName[requestId]));\n        mint(requestToSender[requestId], newId);\n    }\n    function getLevel(uint256 _tokenId) public view returns (uint256) {\n        return sqrt(aeriths[_tokenId].Level);\n    }\n    function getNumberOfAeriths() public view returns (uint256) {\n        return aeriths.length; \n    }\n    function getAerithsOverView(uint256 _tokenId) public view returns (string memory, uint256, uint256, uint256) {\n        return (aeriths[_tokenId].aerith, aeriths[_tokenId].Strength + aeriths[_tokenId].Magic + aeriths[_tokenId].Vitality + \n        aeriths[_tokenId].Spirit + aeriths[_tokenId].Luck + aeriths[_tokenId].Speed, getLevel(_tokenId), aeriths[_tokenId].Level);\n    }\n    function getAerithsStats(uint256 _tokenId) public view returns (uint256, uint256, uint256, uint256, uint256, uint256, uint256) {\n        return (aeriths[_tokenId].Strength, aeriths[_tokenId].Magic, aeriths[_tokenId].Vitality, aeriths[_tokenId].Spirit,\n        aeriths[_tokenId].Luck,  aeriths[_tokenId].Speed,aeriths[_tokenId].Level  );\n    }\n    function sqrt(uint256 x) internal pure returns (uint256 y) {\n        uint256 z = (x + 1) / 2;\n        y = x;\n        while (z < y) {\n            y = z;\n            z = (x / z + z) / 2;\n        }\n    }\n}",
  "sourcePath": "/Users/damiana/Documents/Coding Projects/_MBrody22/Sector 5 slums/contracts/Sector5slums.sol",
  "compiler": {
    "name": "solc",
    "version": "0.8.0+commit.c7dfd78e.Emscripten.clang"
  },
  "schemaVersion": "3.4.1",
  "updatedAt": "2021-08-15T11:32:23.817Z",
  "networkType": "ethereum",
  "devdoc": {
    "kind": "dev",
    "methods": {},
    "version": 1
  },
  "userdoc": {
    "kind": "user",
    "methods": {},
    "version": 1
  }
}